{
  "contractName": "Crowdfunding",
  "abi": [
    {
      "inputs": [
        {
          "internalType": "uint256",
          "name": "_goal",
          "type": "uint256"
        }
      ],
      "stateMutability": "nonpayable",
      "type": "constructor"
    },
    {
      "anonymous": false,
      "inputs": [
        {
          "indexed": false,
          "internalType": "uint256",
          "name": "totalFundsRaised",
          "type": "uint256"
        }
      ],
      "name": "FundingGoalReached",
      "type": "event"
    },
    {
      "anonymous": false,
      "inputs": [
        {
          "indexed": true,
          "internalType": "address",
          "name": "contributor",
          "type": "address"
        },
        {
          "indexed": false,
          "internalType": "uint256",
          "name": "amountContributed",
          "type": "uint256"
        }
      ],
      "name": "FundingReceived",
      "type": "event"
    },
    {
      "anonymous": false,
      "inputs": [
        {
          "indexed": false,
          "internalType": "address",
          "name": "projectCreator",
          "type": "address"
        },
        {
          "indexed": false,
          "internalType": "uint256",
          "name": "totalFunds",
          "type": "uint256"
        }
      ],
      "name": "FundsTransferred",
      "type": "event"
    },
    {
      "inputs": [
        {
          "internalType": "address",
          "name": "",
          "type": "address"
        }
      ],
      "name": "contributions",
      "outputs": [
        {
          "internalType": "uint256",
          "name": "",
          "type": "uint256"
        }
      ],
      "stateMutability": "view",
      "type": "function"
    },
    {
      "inputs": [],
      "name": "crowdfundingEnded",
      "outputs": [
        {
          "internalType": "bool",
          "name": "",
          "type": "bool"
        }
      ],
      "stateMutability": "view",
      "type": "function"
    },
    {
      "inputs": [],
      "name": "fundingGoal",
      "outputs": [
        {
          "internalType": "uint256",
          "name": "",
          "type": "uint256"
        }
      ],
      "stateMutability": "view",
      "type": "function"
    },
    {
      "inputs": [],
      "name": "fundingGoalReached",
      "outputs": [
        {
          "internalType": "bool",
          "name": "",
          "type": "bool"
        }
      ],
      "stateMutability": "view",
      "type": "function"
    },
    {
      "inputs": [],
      "name": "projectCreator",
      "outputs": [
        {
          "internalType": "address",
          "name": "",
          "type": "address"
        }
      ],
      "stateMutability": "view",
      "type": "function"
    },
    {
      "inputs": [],
      "name": "totalFunds",
      "outputs": [
        {
          "internalType": "uint256",
          "name": "",
          "type": "uint256"
        }
      ],
      "stateMutability": "view",
      "type": "function"
    },
    {
      "inputs": [],
      "name": "contribute",
      "outputs": [],
      "stateMutability": "payable",
      "type": "function"
    },
    {
      "inputs": [],
      "name": "endCrowdfunding",
      "outputs": [],
      "stateMutability": "nonpayable",
      "type": "function"
    }
  ],
  "bytecode": "0x60806040525f60045f6101000a81548160ff0219169083151502179055505f600460016101000a81548160ff021916908315150217905550348015610042575f80fd5b50604051610b22380380610b22833981810160405281019061006491906100fa565b335f806101000a81548173ffffffffffffffffffffffffffffffffffffffff021916908373ffffffffffffffffffffffffffffffffffffffff160217905550670de0b6b3a7640000816100b79190610152565b60018190555050610193565b5f80fd5b5f819050919050565b6100d9816100c7565b81146100e3575f80fd5b50565b5f815190506100f4816100d0565b92915050565b5f6020828403121561010f5761010e6100c3565b5b5f61011c848285016100e6565b91505092915050565b7f4e487b71000000000000000000000000000000000000000000000000000000005f52601160045260245ffd5b5f61015c826100c7565b9150610167836100c7565b9250828202610175816100c7565b9150828204841483151761018c5761018b610125565b5b5092915050565b610982806101a05f395ff3fe60806040526004361061007a575f3560e01c8063a541a2a21161004d578063a541a2a214610138578063d424f62814610162578063d7bb99ba1461018c578063ed32f2b0146101965761007a565b806342e94c901461007e5780636695a166146100ba5780637a3a0e84146100e4578063968ed6001461010e575b5f80fd5b348015610089575f80fd5b506100a4600480360381019061009f91906105ec565b6101ac565b6040516100b1919061062f565b60405180910390f35b3480156100c5575f80fd5b506100ce6101c1565b6040516100db9190610662565b60405180910390f35b3480156100ef575f80fd5b506100f86101d4565b604051610105919061062f565b60405180910390f35b348015610119575f80fd5b506101226101da565b60405161012f919061062f565b60405180910390f35b348015610143575f80fd5b5061014c6101e0565b604051610159919061068a565b60405180910390f35b34801561016d575f80fd5b50610176610203565b6040516101839190610662565b60405180910390f35b610194610215565b005b3480156101a1575f80fd5b506101aa6103c1565b005b6003602052805f5260405f205f915090505481565b600460019054906101000a900460ff1681565b60015481565b60025481565b5f8054906101000a900473ffffffffffffffffffffffffffffffffffffffff1681565b60045f9054906101000a900460ff1681565b600460019054906101000a900460ff1615610265576040517f08c379a000000000000000000000000000000000000000000000000000000000815260040161025c906106fd565b60405180910390fd5b5f34116102a7576040517f08c379a000000000000000000000000000000000000000000000000000000000815260040161029e9061078b565b60405180910390fd5b3460035f3373ffffffffffffffffffffffffffffffffffffffff1673ffffffffffffffffffffffffffffffffffffffff1681526020019081526020015f205f8282546102f391906107d6565b925050819055503460025f82825461030b91906107d6565b925050819055503373ffffffffffffffffffffffffffffffffffffffff167f23bac35767dec08bf219a302474bbc6687dfaaf3776a62d45bb7811de040e26d34604051610358919061062f565b60405180910390a2600154600254106103bf57600160045f6101000a81548160ff0219169083151502179055507fbdf8e8154212732e32053db049accdd4ff27639d7028ecf127e2353161b994bf6002546040516103b6919061062f565b60405180910390a15b565b5f8054906101000a900473ffffffffffffffffffffffffffffffffffffffff1673ffffffffffffffffffffffffffffffffffffffff163373ffffffffffffffffffffffffffffffffffffffff161461044e576040517f08c379a000000000000000000000000000000000000000000000000000000000815260040161044590610879565b60405180910390fd5b60045f9054906101000a900460ff161561049d576040517f08c379a000000000000000000000000000000000000000000000000000000000815260040161049490610907565b60405180910390fd5b6001600460016101000a81548160ff02191690831515021790555060045f9054906101000a900460ff161561058c575f8054906101000a900473ffffffffffffffffffffffffffffffffffffffff1673ffffffffffffffffffffffffffffffffffffffff166108fc60025490811502906040515f60405180830381858888f19350505050158015610530573d5f803e3d5ffd5b507f8c9a4f13b67cb64d7c6aa1ae0c9bf07694af521a28b93e7060020810ab4bc59f5f8054906101000a900473ffffffffffffffffffffffffffffffffffffffff16600254604051610583929190610925565b60405180910390a15b565b5f80fd5b5f73ffffffffffffffffffffffffffffffffffffffff82169050919050565b5f6105bb82610592565b9050919050565b6105cb816105b1565b81146105d5575f80fd5b50565b5f813590506105e6816105c2565b92915050565b5f602082840312156106015761060061058e565b5b5f61060e848285016105d8565b91505092915050565b5f819050919050565b61062981610617565b82525050565b5f6020820190506106425f830184610620565b92915050565b5f8115159050919050565b61065c81610648565b82525050565b5f6020820190506106755f830184610653565b92915050565b610684816105b1565b82525050565b5f60208201905061069d5f83018461067b565b92915050565b5f82825260208201905092915050565b7f43726f776466756e64696e672068617320656e6465642e0000000000000000005f82015250565b5f6106e76017836106a3565b91506106f2826106b3565b602082019050919050565b5f6020820190508181035f830152610714816106db565b9050919050565b7f436f6e747269627574696f6e20616d6f756e74206d75737420626520677265615f8201527f746572207468616e203000000000000000000000000000000000000000000000602082015250565b5f610775602a836106a3565b91506107808261071b565b604082019050919050565b5f6020820190508181035f8301526107a281610769565b9050919050565b7f4e487b71000000000000000000000000000000000000000000000000000000005f52601160045260245ffd5b5f6107e082610617565b91506107eb83610617565b9250828201905080821115610803576108026107a9565b5b92915050565b7f4f6e6c79207468652070726f6a6563742063726561746f722063616e207065725f8201527f666f726d207468697320616374696f6e2e000000000000000000000000000000602082015250565b5f6108636031836106a3565b915061086e82610809565b604082019050919050565b5f6020820190508181035f83015261089081610857565b9050919050565b7f46756e64696e6720676f616c2068617320616c7265616479206265656e2072655f8201527f61636865642e0000000000000000000000000000000000000000000000000000602082015250565b5f6108f16026836106a3565b91506108fc82610897565b604082019050919050565b5f6020820190508181035f83015261091e816108e5565b9050919050565b5f6040820190506109385f83018561067b565b6109456020830184610620565b939250505056fea2646970667358221220645b440204d74ed819f6655bcf965a45dca228241d6c944d62f71d4dcf15950b64736f6c63430008150033",
  "immutableReferences": {},
  "source": "// SPDX-License-Identifier: MIT\npragma solidity ^0.8.21;\n\ncontract Crowdfunding {\n    address public projectCreator;\n    uint256 public fundingGoal;\n    uint256 public totalFunds;\n    mapping(address => uint256) public contributions;\n    bool public fundingGoalReached = false;\n    bool public crowdfundingEnded = false;\n\n    event FundingReceived(address indexed contributor, uint256 amountContributed);\n    event FundingGoalReached(uint256 totalFundsRaised);\n    event FundsTransferred(address projectCreator, uint256 totalFunds);\n\n    constructor(uint256 _goal) {\n        projectCreator = msg.sender;\n        fundingGoal = _goal * 1 ether; // Convert goal to wei\n    }\n\n    modifier onlyCreator() {\n        require(msg.sender == projectCreator, \"Only the project creator can perform this action.\");\n        _;\n    }\n\n    modifier goalNotReached() {\n        require(!fundingGoalReached, \"Funding goal has already been reached.\");\n        _;\n    }\n\n    modifier crowdfundingNotEnded() {\n        require(!crowdfundingEnded, \"Crowdfunding has ended.\");\n        _;\n    }\n\n    function contribute() public payable crowdfundingNotEnded {\n        require(msg.value > 0, \"Contribution amount must be greater than 0\");\n        contributions[msg.sender] += msg.value;\n        totalFunds += msg.value;\n        emit FundingReceived(msg.sender, msg.value);\n\n        if (totalFunds >= fundingGoal) {\n            fundingGoalReached = true;\n            emit FundingGoalReached(totalFunds);\n        }\n    }\n\n    function endCrowdfunding() public onlyCreator goalNotReached {\n        crowdfundingEnded = true;\n\n        if (fundingGoalReached) {\n            payable(projectCreator).transfer(totalFunds);\n            emit FundsTransferred(projectCreator, totalFunds);\n        }\n    }\n}\n",
  "sourcePath": "/home/ubuntu/environment/crowdfund-smart-contract/contracts/Crowdfunding.sol",
  "compiler": {
    "name": "solc",
    "version": "0.8.21+commit.d9974bed.Emscripten.clang"
  },
  "schemaVersion": "3.4.16",
  "updatedAt": "2023-09-10T13:44:01.775Z",
  "devdoc": {
    "kind": "dev",
    "methods": {},
    "version": 1
  },
  "userdoc": {
    "kind": "user",
    "methods": {},
    "version": 1
  }
}